:020000040800F2
:100000000000082419150008991200089B12000826
:100010009D1200089F120008A112000800000000B5
:10002000000000000000000000000000A312000813
:10003000A512000800000000A7120008A91200087D
:100040006915000869150008691500086915000898
:100050006915000869150008691500086915000888
:100060006915000869150008691500086915000878
:100070006915000869150008691500086915000868
:100080006915000869150008691500086915000858
:100090006915000869150008691500086915000848
:1000A0006915000869150008691500086915000838
:1000B0006915000869150008691500086915000828
:1000C0006915000869150008691500086915000818
:1000D0006915000869150008691500086915000808
:1000E000691500086915000800000000691500087E
:1000F00069150008691500086915000869150008E8
:10010000B112000869150008691500086915000892
:1001100069150008691500086915000869150008C7
:1001200069150008691500086915000869150008B7
:1001300069150008691500086915000869150008A7
:1001400000000000000000000000000000000000AF
:100150006915000869150008691500086915000887
:100160006915000869150008691500086915000877
:100170006915000869150008691500086915000867
:100180006915000869150008691500086915000857
:100190006915000869150008691500086915000847
:1001A0006915000869150008691500086915000837
:1001B0006915000869150008691500086915000827
:1001C0006915000869150008691500086915000817
:1001D0006915000869150008691500086915000807
:1001E00069150008691500086915000869150008F7
:1001F00069150008691500086915000869150008E7
:1002000069150008691500086915000869150008D6
:1002100069150008691500086915000869150008C6
:10022000691500086915000869150008000000003C
:10023000691500086915000800000000691500082C
:100240006915000869150008691500086915000896
:100250006915000869150008691500086915000886
:100260006915000869150008691500086915000876
:1002700069150008691500086915000800000000EC
:1002800069150008691500086915000800000000DC
:080290000000000069150008E0
:1002C00010B5054C237833B9044B13B10448AFF390
:1002D00000800123237010BD54080024000000009A
:1002E000805D000808B5034B1BB103490348AFF319
:1002F000008008BD0000000058080024805D000850
:1003000080F0004002E000BF81F0004142001FBFCA
:100310005FEA410392EA030F7FEA226C7FEA236CD3
:100320006AD04FEA1262D2EB1363C1BFD2184140C8
:1003300048404140B8BF5B42192B88BF704710F05E
:10034000004F40F4000020F07F4018BF404211F001
:10035000004F41F4000121F07F4118BF494292EA69
:10036000030F3FD0A2F1010241FA03FC10EB0C0095
:10037000C3F1200301FA03F100F0004302D5494222
:1003800060EB4000B0F5000F13D3B0F1807F06D3CF
:1003900040084FEA310102F10102FE2A51D2B1F1C7
:1003A000004F40EBC25008BF20F0010040EA0300BC
:1003B0007047490040EB0000013A28BFB0F5000F3C
:1003C000EDD2B0FA80FCACF1080CB2EB0C0200FAF2
:1003D0000CF0AABF00EBC25052421843BCBFD04041
:1003E0001843704792F0000F81F4000106BF80F4BB
:1003F00000000132013BB5E74FEA41037FEA226C7E
:1004000018BF7FEA236C21D092EA030F04D092F048
:10041000000F08BF0846704790EA010F1CBF00207C
:10042000704712F07F4F04D1400028BF40F00040D9
:10043000704712F100723CBF00F50000704700F0F9
:10044000004343F0FE4040F4000070477FEA226220
:1004500016BF08467FEA23630146420206BF5FEAF1
:10046000412390EA010F40F4800070474FF00003F1
:1004700004E000BF10F0004348BF40425FEA000CB8
:1004800008BF704743F0964301464FF000001CE060
:1004900050EA010208BF70474FF000030AE000BFB6
:1004A00050EA010208BF704711F0004302D54042F4
:1004B00061EB41015FEA010C02BF84460146002066
:1004C00043F0B64308BFA3F18053A3F50003BCFA81
:1004D0008CF2083AA3EBC25310DB01FA02FC63442E
:1004E00000FA02FCC2F12002BCF1004F20FA02F235
:1004F00043EB020008BF20F00100704702F1200228
:1005000001FA02FCC2F1200250EA4C0021FA02F288
:1005100043EB020008BF20EADC7070474FF0FF0C8D
:100520001CEAD0521EBF1CEAD15392EA0C0F93EA88
:100530000C0F6FD01A4480EA010C400218BF5FEA2A
:1005400041211ED04FF0006343EA501043EA51119D
:10055000A0FB01310CF00040B1F5000F3EBF490097
:1005600041EAD3715B0040EA010062F17F02FD2A9B
:100570001DD8B3F1004F40EBC25008BF20F001007E
:10058000704790F0000F0CF0004C08BF49024CEA95
:10059000502040EA51207F3AC2BFD2F1FF0340EA27
:1005A000C250704740F400004FF00003013A5DDC98
:1005B00012F1190FDCBF00F000407047C2F10002D9
:1005C000410021FA02F1C2F1200200FA02FC5FEAC6
:1005D000310040F1000053EA4C0308BF20EADC7010
:1005E000704792F0000F00F0004C02BF400010F482
:1005F000000F013AF9D040EA0C0093F0000F01F02F
:10060000004C02BF490011F4000F013BF9D041EA50
:100610000C018FE70CEAD15392EA0C0F18BF93EA52
:100620000C0F0AD030F0004C18BF31F0004CD8D17C
:1006300080EA010000F00040704790F0000F17BF03
:1006400090F0004F084691F0000F91F0004F14D049
:1006500092EA0C0F01D142020FD193EA0C0F03D1A1
:100660004B0218BF084608D180EA010000F00040A4
:1006700040F0FE4040F40000704740F0FE4040F47F
:10068000400070474FF0FF0C1CEAD0521EBF1CEA1E
:10069000D15392EA0C0F93EA0C0F69D0A2EB03023C
:1006A00080EA010C49024FEA402037D04FF08053D6
:1006B00043EA111143EA10130CF000408B4238BF9B
:1006C0005B0042F17D024FF4000C8B4224BF5B1AA9
:1006D00040EA0C00B3EB510F24BFA3EB510340EAF7
:1006E0005C00B3EB910F24BFA3EB910340EA9C00A5
:1006F000B3EBD10F24BFA3EBD10340EADC001B0115
:1007000018BF5FEA1C1CE0D1FD2A3FF650AF8B42B8
:1007100040EBC25008BF20F0010070470CF0004CC5
:100720004CEA50207F32C2BFD2F1FF0340EAC250F0
:10073000704740F400004FF00003013A37E792F0B1
:10074000000F00F0004C02BF400010F4000F013A0F
:10075000F9D040EA0C0093F0000F01F0004C02BF0A
:10076000490011F4000F013BF9D041EA0C0195E773
:100770000CEAD15392EA0C0F08D142027FF47DAF0C
:1007800093EA0C0F7FF470AF084676E793EA0C0FFC
:1007900004D14B023FF44CAF08466EE730F0004CFA
:1007A00018BF31F0004CCAD130F000427FF45CAF8A
:1007B00031F000437FF43CAF5FE700BF42000ED250
:1007C000B2F1FE4F0BD34FF09E03B3EB126209D48C
:1007D0004FEA002343F0004323FA02F070474FF042
:1007E0000000704712F1610F01D1420202D14FF0B7
:1007F000FF3070474FF00000704700BF53B94AB94F
:10080000002908BF00281CBF4FF0FF314FF0FF3018
:1008100000F074B9ADF1080C6DE904CE00F006F8F3
:10082000DDF804E0DDE9022304B070472DE9F0476C
:10083000089E0D4604468846002B4DD18A429446B8
:1008400068D9B2FA82F252B101FA02F3C2F1200180
:1008500020FA01F10CFA02FC41EA030894404FEA45
:100860001C45210CB8FBF5FE1FFA8CF705FB1E8317
:1008700041EA03430EFB07F199420BD91CEB03033A
:100880000EF1FF3080F01E81994240F21B81AEF1E3
:10089000020E63445B1AA4B2B3FBF5F005FB103300
:1008A00044EA034400FB07F7A7420AD91CEB0404FF
:1008B00000F1FF3380F00881A74240F205816444D3
:1008C0000238E41B40EA0E4000211EB1D440002350
:1008D000C6E90043BDE8F0878B4208D9002E00F03E
:1008E000EE800021C6E900050846BDE8F087B3FAAE
:1008F00083F100294AD1AB4202D3824200F2F9804F
:10090000841A65EB030301209846002EE2D0C6E965
:100910000048DFE702B9FFDEB2FA82F2002A40F0B7
:100920009180A1EB0C054FEA1C471FFA8CFE0121B8
:10093000B5FBF7F307FB1350250C45EA00450EFB0A
:1009400003F0A84208D91CEB050503F1FF3802D2D9
:10095000A84200F2CB8043462D1AA4B2B5FBF7F0B3
:1009600007FB105544EA05440EFB00FEA64508D9D6
:100970001CEB040400F1FF3502D2A64500F2BB8057
:100980002846A4EB0E0440EA03409EE7C1F120078D
:100990008B4022FA07FC4CEA030C20FA07F405FA14
:1009A00001F31C43FD404FEA1C4900FA01F3B5FB7B
:1009B000F9F8200C1FFA8CFE09FB185540EA054592
:1009C00008FB0EF0A84202FA01F20BD91CEB050558
:1009D00008F1FF3A80F08880A84240F28580A8F1B3
:1009E000020865442D1AA4B2B5FBF9F009FB1055B5
:1009F00044EA054500FB0EFEAE4508D91CEB050593
:100A000000F1FF346CD2AE456AD90238654440EA41
:100A10000840A0FB0294A5EB0E05A542C846A646D9
:100A200056D353D05EB1B3EB080265EB0E0505FA61
:100A300007F722FA01F3CD401F43C6E900750021F4
:100A4000BDE8F087C2F1200320FA03F10CFA02FCA2
:100A500025FA03F395400D434FEA1C471FFA8CFE1D
:100A6000B3FBF7F107FB11302B0C43EA004301FB0A
:100A70000EF0984204FA02F408D91CEB030301F1CA
:100A8000FF382FD298422DD9023963441B1AADB2D8
:100A9000B3FBF7F007FB103345EA034500FB0EF309
:100AA000AB4208D91CEB050500F1FF3816D2AB426A
:100AB00014D902386544ED1A40EA014138E731465D
:100AC000304607E78646E5E61846FAE64B45A9D2E2
:100AD000B9EB020864EB0C0E0138A3E74046EAE7E5
:100AE000204694E74146D1E7D0467BE7023B654488
:100AF00032E7084609E76444023842E7704700BF1E
:100B000090F800F06DE9024520F007016FF0000C4D
:100B100010F0070491F820F040F049804FF00004F5
:100B20006FF00700D1E9002391F840F000F10800D0
:100B300082FA4CF2A4FA8CF283FA4CF3A2FA8CF308
:100B40004BBBD1E9022382FA4CF200F10800A4FA6F
:100B50008CF283FA4CF3A2FA8CF3E3B9D1E90423C3
:100B600082FA4CF200F10800A4FA8CF283FA4CF3FA
:100B7000A2FA8CF37BB9D1E9062301F1200182FAB4
:100B80004CF200F10800A4FA8CF283FA4CF3A2FABA
:100B90008CF3002BC6D0002A04BF04301A4612BAC8
:100BA000B2FA82F2FDE8024500EBD2007047D1E9CB
:100BB000002304F00305C4F100004FEAC50514F05A
:100BC000040F91F840F00CFA05F562EA05021CBF2B
:100BD00063EA050362464FF00004A9E70000000045
:100BE00001F0FF01102A2BDB10F0070F08D010F8DE
:100BF000013B013A8B422DD010F0070F42B3F6D1E2
:100C0000F0B441EA012141EA014122F007047FF0FA
:100C100000070023F0E80256083C85EA010586EA51
:100C2000010685FA47F5A3FA87F586FA47F6A5FA8D
:100C300087F68EB9EED1F0BC01F0FF0102F0070299
:100C400032B110F8013B013A83EA010313B1F8D144
:100C50000020704701387047002D06BF3546033825
:100C6000073815F0010F07D1013015F4807F02BF5E
:100C7000013015F4C03F0130F0BC0138704700BFAF
:100C8000844641EA000313F003036DD1403A41D397
:100C900051F8043B40F8043B51F8043B40F8043B56
:100CA00051F8043B40F8043B51F8043B40F8043B46
:100CB00051F8043B40F8043B51F8043B40F8043B36
:100CC00051F8043B40F8043B51F8043B40F8043B26
:100CD00051F8043B40F8043B51F8043B40F8043B16
:100CE00051F8043B40F8043B51F8043B40F8043B06
:100CF00051F8043B40F8043B51F8043B40F8043BF6
:100D000051F8043B40F8043B51F8043B40F8043BE5
:100D1000403ABDD2303211D351F8043B40F8043B85
:100D200051F8043B40F8043B51F8043B40F8043BC5
:100D300051F8043B40F8043B103AEDD20C3205D395
:100D400051F8043B40F8043B043AF9D2043208D08D
:100D5000D2071CBF11F8013B00F8013B01D30B88FF
:100D600003806046704700BF082A13D38B078DD0DD
:100D700010F003038AD0C3F10403D21ADB071CBFAF
:100D800011F8013B00F8013B80D331F8023B20F819
:100D9000023B7BE7043AD9D3013A11F8013B00F852
:100DA000013BF9D20B7803704B7843708B788370DA
:100DB00060467047F0B5B9B0002333933493359350
:100DC00036933793394B1B680BB139B0F0BD374BB5
:100DD00001221A60C022002102A803F039FB4FF063
:100DE00080720023CDE9022302A801F0EBFC002869
:100DF00058D12F4BD3F8D42042F48052C3F8D420DA
:100E0000D3F8D43003F480530193019B4FF68373DE
:100E100033930227349700243594032636960C2505
:100E2000379533A9234800F08DFC48F237133393EC
:100E3000349735943696379533A91F4800F082FCD5
:100E40004CF203733393349735943696379533A920
:100E50001A4800F077FC4FF63F03339334973594EC
:100E60003696379533A9164800F06CFC33953497C5
:100E700035943696379533A9124800F063FC202349
:100E80003393349735943696379533A90E4800F04E
:100E900059FC22462146302000F0FCFB302000F0B7
:100EA0002FFC92E700F05EF9A3E700BF7008002472
:100EB000004402580010025800180258000C025852
:100EC0000014025800080258001C025800B585B0F2
:100ED00018B1012811D0002000E0102000910190ED
:100EE000029203934FF6FF726946054802F02FFC09
:100EF00000B1012005B05DF804FB0820EEE700BF5B
:100F00007408002408B50023012211461846FFF793
:100F1000DDFF012000F092FB002301220221184690
:100F2000FFF7D4FF0023082203211846FFF7CEFF66
:100F30004FF40873012204210020FFF7C7FF40F29D
:100F4000F921024802F024FC08BD00BF7408002407
:100F500010B483B02E4B01934FF04043002202E0C7
:100F600043F8042B0132B2F5000FF9D300224FF001
:100F70004043114600E00131B1F5000F05D253F8AE
:100F8000040B8842F7D00132F5E71AB911464FF049
:100F9000404008E0900003B010BC70470368DB439A
:100FA00040F8043B0131B1F5000FF7D314464FF080
:100FB000404300E00132B2F5000F06D253F8040BB3
:100FC000D1438842F6D00134F4E71CB922464FF0F1
:100FD000404309E0A000DEE702F10801694411F88E
:100FE000041C03F8011B0132032AF5D920464FF0F7
:100FF000404300E00134032CCDD813F8011B04F169
:1010000008026A4412F8042C9142F3D00130F1E74F
:1010100055A55AAA00B589B0002301930293039302
:1010200004930593069307931548164A026043609C
:10103000012282600822C2601021016140214161C9
:101040004FF480718161C3614FF4006101624362BA
:101050004FF400538362022301930292062203920B
:10106000049204220592069307930DEB020102F00D
:1010700035FB10B909B05DF804FB00F073F8F9E72F
:10108000740800244041005208B5FFF793FE08BDE4
:1010900088B02B4BD3F8E02042F01002C3F8E020D8
:1010A000D3F8E02002F010020192019AD3F8E02078
:1010B00042F00102C3F8E020D3F8E02002F0010280
:1010C0000292029AD3F8E02042F00402C3F8E02032
:1010D000D3F8E02002F004020392039AD3F8E02050
:1010E00042F04002C3F8E020D3F8E02002F04002D2
:1010F0000492049AD3F8E02042F00802C3F8E020FA
:10110000D3F8E02002F008020592059AD3F8E02017
:1011100042F02002C3F8E020D3F8E02002F02002E1
:101120000692069AD3F8E02042F08002C3F8E0204D
:10113000D3F8E03003F080030793079B08B07047B3
:101140000044025800B583B001904FF6FF730122AE
:1011500001A9034802F00EFF019803B05DF804FBFB
:10116000AC08002472B6FEE700B59DB04C22002109
:1011700009A803F06DF92022002101A803F068F905
:10118000022000F0F3FB00230093254BDA6A22F0E3
:101190000102DA62DB6A03F001030093214B9A69D2
:1011A00042F440429A619B6903F440430093009BE0
:1011B0001C4B9B6913F4005FFAD0012309934FF491
:1011C00080330A93022312931393149340221592AF
:1011D00016930422179218930C23199300231A9341
:1011E0001B9309A800F0ECFBB0B93F230193032344
:1011F000029300230393082304934023059306934B
:101200004FF4806207920893022101A801F03EF892
:1012100020B91DB05DF804FBFFF7A4FFFFF7A2FFA4
:10122000000400580048025808B500F0C7F9FFF75D
:101230009BFFFFF72DFF00F0EFF8FFF7EBFEFFF746
:1012400061FE084803F0A4F9074803F0A1F9FFF78D
:101250007FFE18B9054803F09BF9FEE7044803F048
:1012600097F9FAE7985D0008B05D0008D05D0008C6
:10127000E45D000882B0074BD3F8F42042F002028C
:10128000C3F8F420D3F8F43003F002030193019B78
:1012900002B0704700440258FEE7FEE7FEE7FEE7B3
:1012A000FEE770477047704708B500F0B5F908BD14
:1012B00008B5024802F03BFA08BD00BF74080024DC
:1012C00070B50C461646002506E0AFF300802146B7
:1012D00001F8010B01350C46B542F6DB304670BD16
:1012E00070B50C461646002504E014F8010BFFF714
:1012F00029FF0135B542F8DB304670BD4FF0FF30B5
:1013000070474FF400534B60002070470120704736
:101310000020704710B503460C4A0D490D4800687F
:1013200040B10C4800680344521A934206D8094A57
:10133000136010BD0748084C0460F2E703F05EF844
:101340000C2303604FF0FF30F3E700BF00000824D8
:1013500000200000A808002490090024244B1B68EA
:1013600003F00F03062B06D8214A136823F00F035E
:1013700043F0070313601F4B1A6842F001021A6022
:1013800000221A6119681C4A0A401A60184B1B682F
:1013900013F0080F06D0164A136823F00F0343F02A
:1013A00007031360134B00229A61DA611A62134932
:1013B00099621349D962134919635A639963DA63CD
:1013C00019645A64196821F4802119601A660E4B59
:1013D0001A680E4B1340B3F1005F03D20C4B01228D
:1013E000C3F808210B4B43F2D2021A60704700BFCA
:1013F00000200052004402587FEDF6EA000202028B
:101400000000FF01800201010010005C0000FFFFEE
:10141000008000510040005208B51748174B036088
:101420004FF4E133436000238360C36003610C2207
:1014300042618361C36103624362836202F067FEBB
:1014400070B900210C4802F0DAFE60B900210A48A8
:1014500002F0FAFE50B9084802F0B2FE48B908BDE1
:10146000FFF780FEEDE7FFF77DFEEFE7FFF77AFE7F
:10147000F1E7FFF777FEF2E7AC080024004C0040EC
:1014800010B5B8B0044600213391349135913691AE
:101490003791C02202A802F0DBFF22681B4B9A4260
:1014A00001D038B010BD02220023CDE9022302A8EA
:1014B00001F088F930BB164BD3F8E82042F4002243
:1014C000C3F8E820D3F8E82002F400220092009A42
:1014D000D3F8E02042F00102C3F8E020D3F8E03076
:1014E00003F001030193019B0323339302233493FD
:1014F0000023359336930823379333A9054800F02A
:1015000021F9CEE7FFF72EFED5E700BF004C0040E3
:101510000044025800000258DFF834D0FFF71EFFE5
:101520000C480D490D4A002302E0D458C45004333E
:10153000C4188C42F9D30A4A0A4C002301E0136014
:101540000432A242FBD302F05FFFFFF76DFE70474B
:101550000000082400000024540800244C5E000809
:10156000540800248C090024FEE70000104B1B786F
:101570000BB90120704710B504464FF47A70B0FBE8
:10158000F3F30C4A1068B0FBF3F000F0C7F868B949
:101590000F2C01D901200AE0002221464FF0FF3034
:1015A00000F078F8044B1C60002000E0012010BD22
:1015B00008000024000000240C00002410B50320C3
:1015C00000F056F800F056FD0F498B69C3F3032372
:1015D0000E4AD35C03F01F03D8408B6903F00F035E
:1015E000D35C03F01F0320FA03F3094A1360094B8D
:1015F00018600F20FFF7BAFF10B10124204610BD7C
:101600000446FFF737FEF9E700440258F85D00088A
:101610000400002400000024034B1B78034A1168D7
:101620000B441360704700BF0800002440090024E9
:10163000014B1868704700BF4009002438B50446C4
:10164000FFF7F6FF0546B4F1FF3F02D0044B1B78CD
:101650001C44FFF7EDFF401BA042FAD338BD00BF8A
:1016600008000024014B1868000C70470010005C53
:101670000649CB6823F4E0631B041B0C000200F452
:10168000E0600343024A1A43CA60704700ED00E07D
:101690000000FA0500B5174BDB68C3F30223C3F162
:1016A000070CBCF1040F28BF4FF0040C03F1040E2B
:1016B000BEF1060F14D9033B4FF0FF3E0EFA0CFCAF
:1016C00021EA0C0199400EFA03F322EA03031943BD
:1016D000002807DB0901C9B2074B19545DF804FB68
:1016E0000023E9E700F00F000901C9B2034B1954C8
:1016F000F4E700BF00ED00E000E400E014ED00E0DE
:10170000002807DB00F01F02400901239340024A32
:1017100042F82030704700BF00E100E00138B0F12E
:10172000807F0BD24FF0E0235861054AF02182F808
:1017300023100020986107221A617047012070472A
:1017400000ED00E070B582B000236EE085685E00B9
:101750000324B44025EA0405CC68B4402C438460DB
:10176000446824EA0C0C4C68C4F300149C4044EA1E
:101770000C0444606CE0DD08083550F8256003F087
:1017800007044FEA840C0F2404FA0CF426EA040E32
:101790000C6904FA0CF444EA0E0440F825406FE0AA
:1017A000092400E0002404FA0EF42C430CF1020C8E
:1017B0006B4D45F82C404FF0B0442568D44325EAE2
:1017C0000206D1F804C01CF4801F01D042EA0506CD
:1017D0004FF0B0452E606D6804EA0506D1F804C0EC
:1017E0001CF4001F01D042EA05064FF0B0456E60C0
:1017F000D5F8845004EA0506D1F804C01CF4003F73
:1018000001D042EA05064FF0B045C5F88460D5F82E
:1018100080502C404E6816F4803F01D042EA050407
:101820004FF0B042C2F8804001330A6832FA03F444
:1018300000F093804FF0010C0CFA03FC1CEA02024A
:10184000F2D04C6804F00304013C012C7FF67EAF1B
:101850004C6804F00304032C0CD0C4685D004FF006
:10186000030C0CFA05FC24EA0C0C8C68AC4044EA2E
:101870000C04C4604C6804F00304022C3FF47BAFFA
:1018800004684FEA430E4FF0030C0CFA0EFC24EAF6
:101890000C0C4C6804F0030404FA0EF444EA0C0443
:1018A00004604C6814F4403FBED02E4CD4F8F45081
:1018B00045F00205C4F8F450D4F8F44004F00204F2
:1018C0000194019C4FEA930C0CF10205244C54F84E
:1018D000255003F003044FEA840E0F2404FA0EF49B
:1018E00025EA0405204CA0423FF45CAF04F5806477
:1018F000A04222D004F58064A04220D004F5806488
:10190000A0421ED004F58064A0421CD004F580647F
:10191000A0421AD004F58064A04218D004F5806477
:10192000A04216D004F58064A04214D004F580646F
:10193000A0423FF435AF0A2435E7012433E70224FF
:1019400031E703242FE704242DE705242BE70624A1
:1019500029E7072427E7082425E702B070BD00BF68
:10196000000400580044025800000258134BDB6882
:1019700013F0040F07D1114BDB6803F00703834218
:101980001AD00120704710B50C4AD36823F0070322
:101990001843D060FFF74CFE0446084B5B6813F415
:1019A000005F07D1FFF744FE001BB0F57A7FF4D942
:1019B000012000E0002010BD0020704700480258C0
:1019C000002800F0398338B50446036813F0010F8E
:1019D00025D0944A136903F03803926A102B15D06E
:1019E000182B0FD06368B3F5803F3FD0002B53D145
:1019F0008C4B1A6822F480321A601A6822F4802212
:101A00001A6038E002F00302022AEBD1854B1B6812
:101A100013F4003F03D06368002B00F00F832368AA
:101A200013F0020F00F0A1807E4A1369926A13F04E
:101A300038035AD0182B55D0E368002B00F0DE8015
:101A400078490A6822F0190213430B60FFF7F0FD92
:101A50000546744B1B6813F0040F40F0AD80FFF790
:101A6000E7FD401B0228F4D90320EEE26D4A13681B
:101A700043F48033136063682BB3FFF7D9FD054649
:101A8000684B1B6813F4003FC9D1FFF7D1FD401B21
:101A90006428F5D90320D8E2B3F5A02F09D0614B13
:101AA0001A6822F480321A601A6822F480221A60BE
:101AB000E1E75C4B1A6842F480221A601A6842F42B
:101AC00080321A60D7E7FFF7B3FD0546554B1B6818
:101AD00013F4003FA3D0FFF7ABFD401B6428F5D9FA
:101AE0000320B2E212F0030FA6D14E4B1B6813F095
:101AF000040F03D0E368002B00F0A282494A136868
:101B000023F01903E1680B431360FFF791FD0546CD
:101B1000444B1B6813F0040F06D1FFF789FD401BEF
:101B20000228F5D9032090E2FFF79CFD41F2030360
:101B3000984212D82269402A07D03A494B6823F4C8
:101B40007C3343EA02334B600FE0364A536823F498
:101B50007C3343F40033536007E0324A536823F088
:101B6000FE43216943EA01635360236813F0100FB9
:101B700000F088802B4A136903F03803926A082B1F
:101B800056D0182B50D0E369002B00F0B880254ABE
:101B9000136843F080031360FFF74AFD0546214BAD
:101BA0001B6813F4807F40F08880FFF741FD401BE5
:101BB0000228F4D9032048E2FFF754FD41F2030361
:101BC000984212D82269402A07D016494B6823F45C
:101BD0007C3343EA02334B60C7E7124A536823F46D
:101BE0007C3343F400335360BFE70E4A536823F05D
:101BF000FE43216943EA01635360B6E7094A13686B
:101C000023F001031360FFF713FD0546054B1B6826
:101C100013F0040FA9D0FFF70BFD401B0228F5D9E4
:101C2000032012E20044025802F00302012AAAD162
:101C3000A14B1B6813F4807F03D0E369802B40F035
:101C40000182FFF70FFD41F20303984212D8226A86
:101C5000202A07D098494B6823F0F84343EA82636F
:101C60004B600FE0944A536823F0F84343F08043FD
:101C7000536007E0904AD36823F07C53216A43EA1B
:101C80000163D360236813F0080F60D06369002BF1
:101C900049D0894A536F43F001035367FFF7C8FCEB
:101CA0000546854B5B6F13F0020F50D1FFF7C0FC68
:101CB000401B0228F5D90320C7E1FFF7D3FC41F20E
:101CC0000303984212D8226A202A07D07A494B6827
:101CD00023F0F84343EA82634B60D3E7764A5368C4
:101CE00023F0F84343F080435360CBE7724AD36854
:101CF00023F07C53216A43EA0163D360C2E76E4A52
:101D0000136823F080031360FFF792FC05466A4BCB
:101D10001B6813F4807FB5D0FFF78AFC401B0228B4
:101D2000F5D9032091E1644A536F23F0010353670F
:101D3000FFF77EFC0546604B5B6F13F0020F06D089
:101D4000FFF776FC401B0228F5D903207DE12368CC
:101D500013F0200F29D0A3699BB1574A136843F4AD
:101D600080531360FFF764FC0546534B1B6813F464
:101D7000005F1AD1FFF75CFC401B0228F5D9032055
:101D800063E14D4A136823F480531360FFF750FC5E
:101D90000546494B1B6813F4005F06D0FFF748FC6B
:101DA000401B0228F5D903204FE1236813F0040FEC
:101DB00021D1636A002B00F047813F4A126902F08B
:101DC0003802182A00F0EE80022B79D03A4A1368C4
:101DD00023F080731360FFF72BFC0446364B1B681F
:101DE00013F0007F00F0DC80FFF722FC001B0228CC
:101DF000F4D9032029E1314A136843F48073136056
:101E0000FFF716FC05462D4B1B6813F4807F06D1A7
:101E1000FFF70EFC401B6428F5D9032015E1A368E9
:101E2000012B0AD00BBB244B1A6F22F001021A6758
:101E30001A6F22F004021A6704E01F4A136F43F07E
:101E400001031367A36833B3FFF7F2FB05461A4B90
:101E50001B6F13F0020FACD1FFF7EAFB401B41F2FE
:101E600088339842F3D90320EFE0052B09D0124BB9
:101E70001A6F22F001021A671A6F22F004021A6721
:101E8000E0E70D4B1A6F42F004021A671A6F42F036
:101E900001021A67D6E7FFF7CBFB0546064B1B6F1F
:101EA00013F0020F85D0FFF7C3FB401B41F28833CC
:101EB0009842F3D90320C8E0004402580048025871
:101EC000694A136823F080731360FFF7B1FB05467E
:101ED000654B1B6813F0007F06D0FFF7A9FB401B82
:101EE0000228F5D90320B0E05F4B996A5F4A0A40A7
:101EF000A16AE06A41EA00110A439A62226B013A40
:101F0000C2F30802616B0139490289B20A43A16B2D
:101F10000139090401F4FE010A43E16B01390906A4
:101F200001F0FE410A431A63DA6A22F00102DA6222
:101F3000596B4F4A0A40A16C42EAC1025A63DA6AFD
:101F400022F00C02216C0A43DA62DA6A22F0020201
:101F5000616C0A43DA62DA6A42F48032DA62DA6A7F
:101F600042F40032DA62DA6A42F48022DA62DA6A31
:101F700042F00102DA621A6842F080721A60FFF7DA
:101F800057FB0446384B1B6813F0007F06D1FFF760
:101F90004FFB001B0228F5D9032056E0002054E037
:101FA000002052E0304A916A106B012B4ED001F0B4
:101FB0000303A26A93424BD1C1F30511E36A99422C
:101FC00048D1C0F30802236B013B9A4244D1C0F3CD
:101FD0004622636B013B9A4240D1C0F30642A36B99
:101FE000013B9A423CD1C0F30660E36B013B98424F
:101FF00038D11D4B5B6BC3F3CC03A26C9A4201D169
:10200000002022E0184AD36A23F00103D362FFF7CD
:102010000FFB0546FFF70CFBA842FBD0124A516BA1
:10202000134B0B40A16C43EAC1035363D36A43F0E3
:102030000103D362002008E001207047012004E082
:10204000012002E0012000E0002038BD0120FCE773
:102050000120FAE70120F8E70120F6E70120F4E784
:102060000120F2E70120F0E7004402580CFCFFFFDA
:102070000700FFFFF8B57E4B1B6903F03803102BF8
:1020800000F0F280182B10D013B17A4C2046F8BD26
:10209000774B1B6813F0200F00F0E880744B186832
:1020A000C0F3C100744CC440F0E7714B9D6A05F069
:1020B00003059C6AC4F30514D86A00F001005B6B49
:1020C000C3F3CC0303FB00F0FEF7D0F90646002C67
:1020D000DCD0012D76D0022D00F0A4800DB3204677
:1020E000FEF7C4F901466548FEF7CCFA0446604B9A
:1020F000186BC0F30800FEF7B9F905464FF06451BC
:102100003046FEF70BFA01462846FEF7FFF84FF07F
:102110007E51FEF7FBF801462046FEF7FFF9044624
:1021200071E0534B1B6813F0200F29D0504F3B68D0
:10213000C3F3C1035048D840FEF798F9054620463E
:10214000FEF794F901462846FEF79CFA0446386BE0
:10215000C0F30800FEF78AF905464FF06451304697
:10216000FEF7DCF901462846FEF7D0F84FF07E5125
:10217000FEF7CCF801462046FEF7D0F9044642E0CF
:102180002046FEF773F901463D48FEF77BFA044608
:10219000374B186BC0F30800FEF768F905464FF09F
:1021A00064513046FEF7BAF901462846FEF7AEF80C
:1021B0004FF07E51FEF7AAF801462046FEF7AEF931
:1021C000044620E02046FEF751F901462B48FEF771
:1021D00059FA0446264B186BC0F30800FEF746F97F
:1021E00005464FF064513046FEF798F901462846FF
:1021F000FEF78CF84FF07E51FEF788F80146204636
:10220000FEF78CF904461A4B1B6BC3F34623581C8C
:10221000FEF72CF901462046FEF734FAFEF7CEFA17
:10222000044633E72046FEF721F901461548FEF73C
:1022300029FA04460E4B186BC0F30800FEF716F996
:1022400005464FF064513046FEF768F901462846CE
:10225000FEF75CF84FF07E51FEF758F80146204635
:10226000FEF75CF90446CEE7074C0FE7024C0DE79A
:102270000044025800093D000090D0030024744A35
:102280000024744C20BCBE4B40787D01002800F037
:10229000328170B50D4604469B4B1B6803F00F035B
:1022A0008B420BD2984A136823F00F030B43136041
:1022B000136803F00F038B4240F01F81236813F073
:1022C000040F0CD02269914B9B6903F070039A4272
:1022D00005D98E498B6923F070031A438A612368FC
:1022E00013F0080F0CD06269884BDB6903F07003B0
:1022F0009A4205D98549CB6923F070031A43CA6114
:10230000236813F0100F0CD0A269804BDB6903F433
:10231000E0639A4205D97D49CB6923F4E0631A430F
:10232000CA61236813F0200F0CD0E269774B1B6A57
:1023300003F070039A4205D974490B6A23F07003C5
:102340001A430A62236813F0020F0CD0E2686F4B45
:102350009B6903F00F039A4205D96C498B6923F0FE
:102360000F031A438A61236813F0010F41D0674AB3
:10237000936923F47063A1680B4393616368022B34
:102380000AD0032B27D0012B2CD0604A126812F000
:10239000040F06D10120ADE0126812F4003F00F0F6
:1023A000AE805A490A6922F0070213430B61FFF716
:1023B0003FF90646554B1B6903F038036268B3EBDF
:1023C000C20F16D0FFF734F9801B41F288339842D0
:1023D000F0D903208EE04D4A126812F0007FE0D160
:1023E000012087E0494A126812F4807FD9D1012088
:1023F00080E0236813F0020F0CD0E268434B9B6926
:1024000003F00F039A4205D240498B6923F00F0372
:102410001A438A613C4B1B6803F00F03AB420AD995
:10242000394A136823F00F032B431360136803F03A
:102430000F03AB4265D1236813F0040F0CD022695F
:10244000324B9B6903F070039A4205D22F498B6986
:1024500023F070031A438A61236813F0080F0CD02D
:1024600062692A4BDB6903F070039A4205D227495F
:10247000CB6923F070031A43CA61236813F0100F6D
:102480000CD0A269214BDB6903F4E0639A4205D2C8
:102490001E49CB6923F4E0631A43CA61236813F031
:1024A000200F0CD0E269194B1B6A03F070039A42AB
:1024B00005D216490B6A23F070031A430A62FFF72C
:1024C000D9FD12498B69C3F30323114AD35C03F08E
:1024D0001F03D8408B6903F00F03D35C03F01F0385
:1024E00020FA03F30B4A13600B4B18600B4B186870
:1024F000FFF73CF870BD012070470120FAE701208A
:10250000F8E70120F6E700BF00200052004402581F
:10251000F85D000804000024000000240C000024E2
:1025200008B5FFF7A7FD0B4A9369C3F303230A49D4
:10253000CB5C03F01F0320FA03F3926902F00F0251
:10254000885C00F01F0023FA00F0044A1060044A7F
:10255000136008BD00440258F85D00080400002420
:102560000000002408B5FFF7DBFF054BDB69C3F370
:102570000213044AD35C03F01F03D84008BD00BF18
:1025800000440258F85D000808B5FFF7C9FF054B85
:10259000DB69C3F30223044AD35C03F01F03D84072
:1025A00008BD00BF00440258F85D0008404B9B6A1C
:1025B00003F00303032B79D070B505460E463C4A61
:1025C000136823F080631360FFF732F80446384B3A
:1025D0001B6813F0006F06D0FFF72AF8031B022BCD
:1025E000F5D9032070BD324B9A6A22F47C322968F7
:1025F00042EA01329A626A68013AC2F30802A968A3
:102600000139490289B20A43E9680139090401F430
:10261000FE010A4329690139090601F0FE410A4316
:102620009A63DA6A22F0C00269690A43DA62DA6AF6
:1026300022F02002A9690A43DA62DA6A22F0100263
:10264000DA62D96B1B4A0A40E96942EAC102DA63DD
:10265000DA6A42F01002DA62C6B91A46DB6A43F45B
:102660000023D362124A136843F080631360FEF7BD
:10267000DFFF04460E4B1B6813F0006F14D1FEF70A
:10268000D7FF001B0228F5D90320ABE7012E05D0A8
:10269000074AD36A43F40013D362E3E7044AD36AD8
:1026A00043F48013D362DDE700209BE701207047ED
:1026B000004402580700FFFF404B9B6A03F00303EE
:1026C000032B79D070B505460E463C4A136823F0BB
:1026D00080531360FEF7ACFF0446384B1B6813F0C1
:1026E000005F06D0FEF7A4FF031B022BF5D90320E1
:1026F00070BD324B9A6A22F07C72296842EA01521C
:102700009A626A68013AC2F30802A968013949026B
:1027100089B20A43E9680139090401F4FE010A4358
:1027200029690139090601F0FE410A431A64DA6A8F
:1027300022F4406269690A43DA62DA6A22F40072BA
:10274000A9690A43DA62DA6A22F48072DA62596CA1
:102750001B4A0A40E96942EAC1025A64DA6A42F451
:102760008072DA62C6B91A46DB6A43F48003D36228
:10277000124A136843F080531360FEF759FF044672
:102780000E4B1B6813F0005F14D1FEF751FF001BC6
:102790000228F5D90320ABE7012E05D0074AD36AFA
:1027A00043F08073D362E3E7044AD36A43F400033F
:1027B000D362DDE700209BE7012070470044025808
:1027C0000700FFFFF8B50446036813F0006F30D030
:1027D000836EB3F5001F26D00ED8EBB1B3F5801F82
:1027E00007D102210830FFF7E1FE054645B12E462C
:1027F00021E0012635461EE0B3F5401F09D1002532
:10280000984A136D23F44013A16E0B431365002601
:1028100011E0012635460EE0924AD36A43F40033B4
:10282000D3620025ECE702212830FFF745FF05467B
:10283000DCE700263546236813F4807F14D0A36DAF
:10284000042B32D8DFE803F003232A080800854A66
:10285000D36A43F40033D36255BB824A136D23F02D
:102860000703A16D0B431365236813F4007F31D078
:10287000E36D802B4CD020D8002B43D0402B19D1B6
:10288000002104F10800FFF791FE05461AE000213F
:1028900004F10800FFF78AFE0546DDE7002104F198
:1028A0002800FFF709FF0546D6E701263546DBE796
:1028B0002E46D9E7012635460CE0C02B02D0B3F5F1
:1028C000807F1CD15DBB674A136D23F4E073E16D1B
:1028D0000B431365236813F4806F46D0D4F8A830F7
:1028E000B3F5800F39D01FD88BB3B3F5001F18D1C3
:1028F000002104F10800FFF759FE05461AE0012601
:102900003546E7E7574AD36A43F40033D362D9E741
:10291000002104F12800FFF7CFFE0546D2E72E463E
:10292000D8E70126354620E0B3F5C00F02D0B3F555
:10293000000F09D1C5B94B4A936D23F46003D4F855
:10294000A8100B43936510E0012635460DE0454A7B
:10295000D36A43F40033D362ECE7002104F128008A
:10296000FFF7AAFE0546E5E72E46236813F4006F3D
:1029700024D0D4F8AC30B3F1007F42D00ED8002B75
:1029800039D0B3F1807F06D1002104F10800FFF7B0
:102990000DFE054608E0012635460FE0B3F1407F05
:1029A00002D0B3F1806F23D1002D31D12D4A936D28
:1029B00023F0E063D4F8AC100B439365236813F065
:1029C000007F2ED0E36C202B40D026D833B1102BC3
:1029D00020D1244AD36A43F40033D362002D3CD182
:1029E000204AD36C23F03003E16C0B43D36418E02E
:1029F00001263546E2E71B4AD36A43F40033D3622B
:102A0000D2E7002104F12800FFF756FE0546CBE788
:102A10002E46D3E70126354603E0302BDED00126D3
:102A20003546236813F4805F2DD0236EB3F5005F25
:102A30004FD019D8002B46D0B3F5805F0FD10021BD
:102A400004F10800FFF7B2FD054613E0022104F18E
:102A50000800FFF7ABFD0546C0E72E46E1E701267B
:102A6000354610E000440258B3F5405F02D0B3F59C
:102A7000804F25D1002D33D1774A136D23F4E043E5
:102A8000216E0B431365236813F4005F38D0636E27
:102A9000B3F5003F53D028D843B1B3F5803F21D1DF
:102AA000012104F10800FFF781FD0546002D4DD1FD
:102AB000694A136D23F4E023616E0B4313651FE035
:102AC00001263546DFE7644AD36A43F40033D36214
:102AD000D0E7002104F12800FFF7EEFD0546C9E725
:102AE0002E46D0E7012635460AE0B3F5802FDDD02B
:102AF000B3F5A02FDAD0B3F5403FD7D00126354645
:102B0000236813F4804F31D0D4F8B030B3F1005FB4
:102B100045D020D843B1B3F1805F19D1012104F130
:102B20000800FFF743FD0546002D3FD14A4A936D4B
:102B300023F0E043D4F8B0100B43936516E0012175
:102B400004F12800FFF7B8FD0546AFE72E46D7E7AA
:102B5000012635460AE0B3F1804FE5D0B3F1A04F2E
:102B6000E2D0B3F1405FDFD001263546236813F48D
:102B7000004F09D0236FB3F1805F19D0B3F1005F2C
:102B800024D0D3B101263546236813F0807F33D09B
:102B9000A36C032B5BD8DFE803F027225327012126
:102BA00004F12800FFF788FD0546BDE72E46DDE766
:102BB000294AD36A43F40033D36275B9264A136DA8
:102BC00023F04053216F0B431365DDE7012104F12E
:102BD0000800FFF7EBFC0546EFE72E46D4E71E4A58
:102BE000D36A43F40033D362A5BB1B4AD36C23F0F2
:102BF0000303A16C0B43D364236813F4800F2DD11E
:102C0000236813F0010F00F0A580E36F282B00F27A
:102C10009F80DFE803F08D9D9D9D9D9D9D9D879DDF
:102C20009D9D9D9D9D9D969D9D9D9D9D9D9D8D9DEB
:102C30009D9D9D9D9D9D8D9D9D9D9D9D9D9D8D0081
:102C4000022104F10800FFF7B1FC0546CCE701269C
:102C50003546D1E72E46CFE700440258914A136823
:102C600043F480731360FEF7E3FC07468D4B1B684B
:102C700013F4807F05D1FEF7DBFCC01B6428F5D977
:102C80000325002D4AD1884B1B6FD4F8B420534044
:102C900013F4407F0CD0844B1A6F22F44072196FEA
:102CA00041F480311967196F21F4803119671A676F
:102CB000D4F8B430B3F5807F15D08DBBD4F8B430E0
:102CC00003F44072B2F5407F1ED0774A136923F4B3
:102CD0007C53136174490B6FD4F8B420C2F30B0218
:102CE00013430B678CE7FEF7A3FC07466E4B1B6F85
:102CF00013F0020FE1D1FEF79BFCC01B41F28833B9
:102D00009842F3D90325D8E76748026922F47C5238
:102D1000664901EA131313430361DBE72E466FE7AD
:102D20002E466DE7012104F10800FFF73FFC054640
:102D3000E5B95D4A536D23F03803E16F0B435365EA
:102D400008E0012104F12800FFF7B6FC0546EFE793
:102D500001263546236813F0020F17D0A36F052B09
:102D600028D8DFE803F00B05200B0B0B2E46F1E70C
:102D7000012104F10800FFF719FC0546EDB94A4AA4
:102D8000536D23F00703A16F0B435365236813F0C2
:102D9000040F23D0D4F89430052B45D8DFE803F096
:102DA000150F3D151515012104F12800FFF784FCCE
:102DB0000546E3E701263546E8E72E46E6E701212A
:102DC00004F10800FFF7F2FB054685BB364A936D18
:102DD00023F00703D4F894100B439365236813F092
:102DE000200F34D0D4F89030B3F1005F4ED023D808
:102DF00043B1B3F1805F1CD1002104F10800FFF75B
:102E0000D5FB0546002D48D1274A536D23F0E043FA
:102E1000D4F890100B43536519E0012104F1280008
:102E2000FFF74AFC0546D0E701263546D6E72E4691
:102E3000D4E7012635460AE0B3F1804FE2D0B3F182
:102E4000A04FDFD0B3F1405FDCD0012635462368C8
:102E500013F0400F37D0D4F89C30B3F5006F53D047
:102E600026D843B1B3F5806F19D1002104F10800D1
:102E7000FFF79CFB0546002D4DD10B4A936D23F4C3
:102E8000E053D4F89C100B4393651CE0022104F13D
:102E90002800FFF711FC0546B4E72E46D7E70126C8
:102EA000354610E00048025800440258CFFFFF00AA
:102EB000B3F5805FDFD0B3F5A05FDCD0B3F5406F32
:102EC000D9D001263546236813F0800F33D0D4F8CB
:102ED000A030B3F5804F00F0A38021D843B1B3F503
:102EE000005F1AD1002104F10800FFF75FFB0546DF
:102EF000002D40F09C80814A936D23F46043D4F808
:102F0000A0100B43936516E0022104F12800FFF79F
:102F1000D3FB0546AFE72E46D5E7012635460AE046
:102F2000B3F5004FE4D0B3F5204FE1D0B3F5C04F77
:102F3000DED001263546236813F0080F0CD0D4F8F4
:102F40008430B3F5805F74D06C4A536D23F44053E2
:102F5000D4F884100B435365236813F0100F0CD082
:102F6000D4F89830B3F5807F6CD0644A936D23F425
:102F70004073D4F898100B439365236813F4002F23
:102F80000BD0D4F8A430B3F5803F74D0B3F5003F34
:102F900067D0002B5FD001263546236813F4802FBD
:102FA0000CD0D4F88830B3F5001F7CD0B3F5401FA7
:102FB0006FD0B3F5801F67D001263546236813F420
:102FC000803F08D0236D002B76D0B3F5803F00F012
:102FD000818001263546236813F0005F40F083802E
:102FE000236813F4003F00F08E80D4F88030B3F5EE
:102FF000807F00F0EC8040F28380B3F5007F03D047
:10300000B3F5407F40F0E180002D40F0E6803B4A80
:10301000536D23F44073D4F880100B43536572E072
:10302000022104F12800FFF747FB054660E72E4622
:1030300081E7022104F12800FFF73EFB002883D03E
:10304000012681E7022104F12800FFF735FB002863
:103050008BD0012689E7002104F10800FFF7A6FACA
:1030600005467DB9254A936D23F44033D4F8A41066
:103070000B43936591E7022104F12800FFF71CFB45
:103080000546EEE72E4688E71C4AD36A43F4003330
:10309000D3627DB9194A536D23F44013D4F88810D4
:1030A0000B4353658AE7012104F12800FFF704FB75
:1030B0000546EEE72E4681E7104AD36A43F4003313
:1030C000D36275B90D4AD36C23F48033216D0B4361
:1030D000D36480E7022104F10800FFF767FA054690
:1030E000EFE72E4677E7022104F12800FFF7E4FA24
:1030F00000283FF475AF012672E700BF0044025874
:10310000002B81D00126236813F4801F06D04F4A7C
:10311000136D23F00043616F0B431365236813F0B5
:10312000805F07D0494A136923F48043D4F8B8106C
:103130000B431361236813F4001F06D0434A136D39
:1031400023F08073E16E0B431365236813F0804F07
:1031500009D03E4B1A6922F400421A611A69D4F868
:10316000BC100A431A612368002B06DA374AD36C75
:1031700023F04053616D0B43D364236813F4000FB5
:1031800007D0324A536D23F44003D4F88C100B431C
:103190005365636813F0010F21D1636813F0020FC8
:1031A00026D1636813F0040F2BD1636813F0080F66
:1031B00030D1636813F0100F35D1636813F0200F1E
:1031C0003AD106B101263046F8BD01269BE71F4AD9
:1031D000D36A43F40033D36216E72E4693E7002107
:1031E00004F10800FFF7E2F90028D6D00646D4E73C
:1031F000012104F10800FFF7D9F90028D1D00646D3
:10320000CFE7022104F10800FFF7D0F90028CCD065
:103210000646CAE7002104F12800FFF74DFA00280E
:10322000C7D00646C5E7012104F12800FFF744FA9C
:103230000028C2D00646C0E7022104F12800FFF7AB
:103240003BFA0028BDD00646BBE700BF0044025849
:1032500008B5FFF765F9054B1B6AC3F30213044A6F
:10326000D35C03F01F03D84008BD00BF00440258E0
:10327000F85D00082DE9F0410446864B9D6A9E6A80
:10328000C6F30536D86AC0F30010DB6BC3F3CC037A
:1032900003FB00F0FDF7EAF8002E00F0F58005F0E2
:1032A00003050746012D79D0022D00F0CB800DB328
:1032B0003046FDF7DBF801467748FDF7E3F90546B0
:1032C000744B986BC0F30800FDF7D0F806464FF03A
:1032D00064513846FDF722F901463046FDF716F8ED
:1032E0004FF07E51FDF712F801462846FDF716F91A
:1032F000054674E0674B1B6813F0200F2CD0DFF8F5
:103300009481D8F80030C3F3C1036448D840FDF776
:10331000ADF805463046FDF7A9F801462846FDF709
:10332000B1F90546D8F83800C0F30800FDF79EF85B
:1033300006464FF064513846FDF7F0F80146304636
:10334000FCF7E4FF4FF07E51FCF7E0FF0146284612
:10335000FDF7E4F8054642E03046FDF787F8014600
:103360004F48FDF78FF905464A4B986BC0F30800AC
:10337000FDF77CF806464FF064513846FDF7CEF86D
:1033800001463046FCF7C2FF4FF07E51FCF7BEFF0E
:1033900001462846FDF7C2F8054620E03046FDF715
:1033A00065F801463C48FDF76DF90546394B986BC9
:1033B000C0F30800FDF75AF806464FF0645138464E
:1033C000FDF7ACF801463046FCF7A0FF4FF07E5108
:1033D000FCF79CFF01462846FDF7A0F805462D4E58
:1033E000B06BC0F34620FDF741F84FF07E51FCF77B
:1033F0008DFF01462846FDF745F9FDF7DFF920600E
:10340000B06BC0F30640FDF731F84FF07E51FCF78A
:103410007DFF01462846FDF735F9FDF7CFF96060DD
:10342000B06BC0F30660FDF721F84FF07E51FCF75A
:103430006DFF01462846FDF725F9FDF7BFF9A060AD
:10344000BDE8F0813046FDF711F801461548FDF75B
:1034500019F905460F4B986BC0F30800FDF706F805
:1034600006464FF064513846FDF758F8014630469D
:10347000FCF74CFF4FF07E51FCF748FF0146284611
:10348000FDF74CF80546AAE7002323606360A360BC
:10349000D6E700BF004402580024744A0090D003CD
:1034A0000024744C20BCBE4B2DE9F0410446864BF1
:1034B0009D6A9E6AC6F30556D86AC0F300205B6C0D
:1034C000C3F3CC0303FB00F0FCF7D0FF002E00F0A9
:1034D000F58005F003050746012D79D0022D00F097
:1034E000CB800DB33046FCF7C1FF01467748FDF7AE
:1034F000C9F80546744B186CC0F30800FCF7B6FF1A
:1035000006464FF064513846FDF708F8014630464C
:10351000FCF7FCFE4FF07E51FCF7F8FE0146284612
:10352000FCF7FCFF054674E0674B1B6813F0200FA7
:103530002CD0DFF89481D8F80030C3F3C10364487D
:10354000D840FCF793FF05463046FCF78FFF014655
:103550002846FDF797F80546D8F84000C0F3080064
:10356000FCF784FF06464FF064513846FCF7D6FF5F
:1035700001463046FCF7CAFE4FF07E51FCF7C6FE0E
:1035800001462846FCF7CAFF054642E03046FCF7F4
:103590006DFF01464F48FDF775F805464A4B186C1C
:1035A000C0F30800FCF762FF06464FF0645138464E
:1035B000FCF7B4FF01463046FCF7A8FE4FF07E5101
:1035C000FCF7A4FE01462846FCF7A8FF054620E0CC
:1035D0003046FCF74BFF01463C48FDF753F80546E3
:1035E000394B186CC0F30800FCF740FF06464FF05B
:1035F00064513846FCF792FF01463046FCF786FEE0
:103600004FF07E51FCF782FE01462846FCF786FF0C
:1036100005462D4E306CC0F34620FCF727FF4FF0D7
:103620007E51FCF773FE01462846FDF72BF8FDF7A7
:10363000C5F82060306CC0F30640FCF717FF4FF070
:103640007E51FCF763FE01462846FDF71BF8FDF7A7
:10365000B5F86060306CC0F30660FCF707FF4FF010
:103660007E51FCF753FE01462846FDF70BF8FDF7A7
:10367000A5F8A060BDE8F0813046FCF7F7FE0146F2
:103680001548FCF7FFFF05460F4B186CC0F3080008
:10369000FCF7ECFE06464FF064513846FCF73EFF5F
:1036A00001463046FCF732FE4FF07E51FCF72EFE0D
:1036B00001462846FCF732FF0546AAE700232360AF
:1036C0006360A360D6E700BF004402580024744A38
:1036D0000090D0030024744C20BCBE4B08B338B516
:1036E0000D46044690F82C30B3B1022384F82C30F8
:1036F000214651F8040B00F0CDFD62682946206890
:1037000000F002FE084A136843F0004313600123EF
:1037100084F82C30002038BD80F82D30FDF7B4FC43
:10372000E3E70120704700BF004000527047036884
:103730009B6913F0010F00D1704710B50446FFF7E5
:10374000F5FF2268536943F00103536110BD38B59A
:10375000044690F82C30D8B2022805D00D46052832
:1037600018BF012801D0012038BD022384F82C3075
:10377000206800F023FE2B68022B04D0012384F87C
:103780002C300020F0E7052384F82C300020EBE7F4
:1037900010B5044690F82C30D8B2022805D094F821
:1037A0002C30DBB2012B01D0012010BD022384F8A4
:1037B0002C30206800F018FE012384F82C30002003
:1037C000F3E70000026852E8003F23F4907342E8F8
:1037D00000310029F6D1026802F1080353E8001F06
:1037E0000D4B0B40083242E800310029F3D1C36E83
:1037F000012B06D02023C0F88C300023C36643671A
:103800007047026852E8003F23F0100342E800319D
:103810000029F6D1EEE700BFFEFFFFEF70B586B0DE
:103820000446016883680269134342691343C2690D
:1038300013430868884A024013430B6022685368A8
:1038400023F44053E1680B435360A1692268834B22
:103850009A4201D0236A19439068814B03400B437D
:1038600093602268D36A23F00F03616A0B43D3622B
:1038700022687C4B9A4221D07B4B9A4200F08C808C
:103880007A4B9A4200F0A280794B9A4200F0B580C0
:10389000784B9A4200F0C880774B9A4200F0F4804F
:1038A000764B9A4200F01981754B9A4200F02C81B8
:1038B0006A4B9A4200F03F81802333E0714B5B6D8D
:1038C00003F03803282B65D8DFE813F029006400E3
:1038D0006400640064006400640064004D016400DE
:1038E0006400640064006400640064002B006400F1
:1038F0006400640064006400640064005E006400AE
:10390000640064006400640064006400600064009B
:1039100064006400640064006400640062000123C9
:1039200000E008234D498A4200F02F81E069B0F59C
:10393000004F00F0AF81202B00F20782202B00F215
:103940005182DFE813F01E0224024F024F022702C9
:103950004F024F024F022C024F024F024F024F0202
:103960004F024F024F0231024F024F024F024F02ED
:103970004F024F024F024F024F024F024F024F02BF
:103980004F024F024F023D021023CBE72023C9E72D
:103990004023C7E78023C5E73A4B5B6D03F007037D
:1039A000052B11D8DFE813F00600E10008000A003B
:1039B0000C000E000023B5E70823B3E71023B1E79E
:1039C0002023AFE74023ADE78023ABE72D4B5B6DB2
:1039D00003F00703052B0ED8DFE803F003C9050742
:1039E000090B00239EE708239CE710239AE7202376
:1039F00098E7402396E7802394E7224B5B6D03F022
:103A00000703052B0ED8DFE803F003B40507090B05
:103A1000002387E7082385E7102383E7202381E736
:103A200040237FE780237DE7164B5B6D03F00703A0
:103A3000052B0ED8DFE803F0039F0507090B0023D1
:103A400070E708236EE710236CE720236AE7402322
:103A500068E7802366E700BFF369FFCF000C0058DA
:103A6000FFF4FF11001001400044004000480040F6
:103A7000004C00400050004000140140007800401D
:103A8000007C0040004402587D4B5B6D03F038031E
:103A9000282B20D8DFE803F0151F1F1F1F1F1F1F33
:103AA000711F1F1F1F1F1F1F171F1F1F1F1F1F1FDC
:103AB000191F1F1F1F1F1F1F1B1F1F1F1F1F1F1F20
:103AC0001D0001232EE708232CE710232AE72023DB
:103AD00028E7402326E7802324E7694B5B6D03F04A
:103AE0000703052B0ED8DFE803F0034A0507090B8F
:103AF000002317E7082315E7102313E7202311E716
:103B000040230FE780230DE75D4B5B6D03F0070358
:103B1000052B0ED8DFE803F003350507090B00235A
:103B200000E70823FEE61023FCE62023FAE6402304
:103B3000F8E68023F6E603F50E339B6D03F00703EA
:103B4000052B0ED8DFE803F0031F0507090B02233E
:103B5000E8E60823E6E61023E4E62023E2E6402335
:103B6000E0E68023DEE60423DCE60423DAE6042331
:103B7000D8E60423D6E60423D4E60423D2E60423BD
:103B8000D0E60423CEE60423CCE6202B27D8022B54
:103B9000C0F01A81023B1E2B00F21881DFE813F0FF
:103BA0005000160156001601160116015B001601A1
:103BB0001601160116011601160116016000160104
:103BC000160116011601160116011601160116013D
:103BD0001601160116011601160116016C00402B84
:103BE0002CD14FF40040626A264B33F81220B0FB10
:103BF000F2F3656805EB4501994200F2E980B3EB09
:103C0000053F00F2E780002633463146FCF7F6FD1B
:103C1000090241EA106100026B08C0182A463346C7
:103C200041F10001FCF7EAFDA0F54072164B9A4203
:103C300000F2D2802368D8603046D4E00120D2E080
:103C4000FFF706FB0028CED10020CCE003A8FFF749
:103C500011FB0498F6E76846FFF726FC0198F1E7A8
:103C6000074B1B6813F0200F08D0054B1B68C3F3EC
:103C7000C1030648D840E5E70548B4E70348B2E782
:103C800000440258085E0008FFFC0F000090D003BB
:103C900000093D00202B15D8202B00F29F80DFE883
:103CA00003F031379D9D3A9D9D9D3F9D9D9D9D9D1E
:103CB0009D9D449D9D9D9D9D9D9D9D9D9D9D9D9D8D
:103CC0009D9D5000402B1BD1626A4D4B33F8123042
:103CD000B0FBF3F06268530803EB4000B0FBF2F076
:103CE000A0F110024FF6EF739A4279D883B223F015
:103CF0000F03C0F3420018432368D860002072E02D
:103D0000012070E0FEF72EFC0028DDD100206AE0E3
:103D1000FEF73AFCF8E703A8FFF7ACFA0498F3E7DC
:103D20006846FFF7C1FB0198EEE7364B1B6813F0BE
:103D3000200F08D0334B1B68C3F3C1033248D8406F
:103D4000E2E73248C0E73048BEE7402B17D14FF4D6
:103D50000040626A2A4B33F81230B0FBF3F063681C
:103D600000EB5300B0FBF3F0A0F110024FF6EF733D
:103D70009A4242D8236880B2D860002033E0012004
:103D800031E0FEF7EFFB0028E3D100202BE0FEF747
:103D9000FBFBF8E703A8FFF76DFA0498F3E7684622
:103DA000FFF782FB0198EEE7164B1B6813F0200F1C
:103DB00008D0144B1B68C3F3C1031348D840E2E793
:103DC0001248C6E71048C4E701200CE001200AE0D1
:103DD000012008E0012006E0012004E0012002E0CB
:103DE000012000E001200123A4F86A30A4F8683023
:103DF00000236367A36706B070BD0120F3E700BF2F
:103E0000085E0008004402580090D00300093D00FD
:103E1000836A13F0010F06D00268536823F400335D
:103E2000C16A0B435360836A13F0020F06D0026825
:103E3000536823F48033016B0B435360836A13F0A0
:103E4000040F06D00268536823F48023416B0B43B0
:103E50005360836A13F0080F06D00268536823F496
:103E60000043816B0B435360836A13F0100F06D03D
:103E70000268936823F48053C16B0B439360836A99
:103E800013F0200F06D00268936823F40053016CEE
:103E90000B439360836A13F0400F0AD002685368A3
:103EA00023F48013416C0B435360436CB3F5801FC4
:103EB0000BD0836A13F0800F06D00268536823F496
:103EC0000023C16C0B43536070470268536823F4AE
:103ED000C003816C0B435360EBE72DE9F8430546C3
:103EE0000F4616469946DDF820802C68E46937EACB
:103EF00004030CBF4FF0010C4FF0000CB44532D15D
:103F0000B8F1FF3FF1D0FDF793FBA0EB090040456E
:103F10002CD8B8F1000F2BD02B681A6812F0040FC0
:103F2000E3D0DA6912F0080F11D1DA6912F4006FE8
:103F3000DBD04FF400621A622846FFF743FC2023CF
:103F4000C5F89030002385F8843003200CE0082465
:103F50001C622846FFF736FCC5F89040002385F820
:103F60008430012000E00020BDE8F8830320FBE757
:103F70000320F9E72DE9F04182B01E46D0F88830E1
:103F8000202B5BD104460D469046002A18BF00291D
:103F900001D1012053E00023C0F890302123C0F864
:103FA0008830FDF745FB0746A4F85480A4F85680F6
:103FB000A368B3F5805F02D04FF0000816E02369D4
:103FC00043B34FF0000811E02023C4F888300320E9
:103FD00035E038F8023B2268C3F308039362B4F873
:103FE000562092B2013A92B2A4F85620B4F8563054
:103FF0009BB293B100963B46002280212046FFF7FA
:104000006CFF0028E0D1002DE3D015F8012B2368C8
:104010009A62E4E7A8460025E8E700963B460022BE
:1040200040212046FFF759FF18B92023C4F88830F3
:1040300005E02023C4F88830032000E0022002B00D
:10404000BDE8F08130B583B004460023C0F890305D
:10405000FDF7EEFA05462268126812F0080F10D13B
:1040600023681B6813F0040F28D12023C4F888307C
:10407000C4F88C300020E066206784F8840003B028
:1040800030BD6FF07E430093034600224FF40011D1
:104090002046FFF722FF0028E2D0226852E8003FC6
:1040A00023F0800342E800310029F6D12023C4F830
:1040B0008830002384F884300320E0E76FF07E43EB
:1040C00000932B4600224FF480012046FFF705FFA6
:1040D0000028CAD0226852E8003F23F4907342E8D7
:1040E00000310029F6D1226802F1080353E8003FAD
:1040F00023F00103083242E800310029F3D12023E4
:10410000C4F88C30002384F884300320B7E778B3F8
:1041100010B50446D0F888300BB32423C4F8883097
:104120002268136823F0010313602046FFF776FB33
:10413000012813D0A36ABBB92268536823F49043C3
:1041400053602268936823F02A03936022681368FF
:1041500043F0010313602046FFF774FF10BD80F8A1
:104160008430FDF78DF9D8E72046FFF751FEE3E7ED
:1041700001207047436E2BB90123A0F86A30A0F8E4
:104180006830704730B403689A68C2F34262996835
:10419000490F094D6B5C1B01084C615C93FBF1F30B
:1041A000A0F86A30AB5C1B01A25C93FBF2F3A0F8B1
:1041B000683030BC704700BF285E0008205E0008F1
:1041C00090F88430012B18D0012380F88430242308
:1041D000C0F8883003681A68196821F00101196075
:1041E00022F000520023436601680A602022C0F8D2
:1041F000882080F88430184670470220704738B510
:1042000090F88430012B1DD00446012380F88430BF
:104210002423C0F8883003681D681A6822F0010260
:104220001A600268936823F0604319439160FFF7B6
:10423000A1FF23681D602023C4F88830002084F883
:10424000840038BD0220FCE738B590F88430012B9B
:104250001DD00446012380F884302423C0F8883020
:1042600003681D681A6822F001021A6002689368E8
:1042700023F0606319439160FFF77CFF23681D60A2
:104280002023C4F88830002084F8840038BD022040
:10429000FCE7000010B40B68C3B90368194A1A4060
:1042A0004B688C682343CC6823430C6923434C69D7
:1042B00023438C692343CC6923430C6A2343496A13
:1042C0000B4313430360002010BC7047036823F4C2
:1042D000F843CA690C6A22434C6A224313430360C1
:1042E0004368084A1A404B688C682343CC682343D0
:1042F0000C6923434C69234389690B43134343608F
:10430000E1E700BF0080FFFF52BB826802F070420D
:104310000B68013BD1F804C00CF1FF3C43EA0C13DD
:10432000D1F808C00CF1FF3C43EA0C23D1F80CC0D3
:104330000CF1FF3C43EA0C33D1F810C00CF1FF3C08
:1043400043EA0C43D1F814C00CF1FF3C43EA0C5390
:104350008969013943EA0163134383600020704790
:104360008368154A1A40CB6803F1FF3C4B69013B57
:104370001B0543EA0C3313438360C26802F07042AA
:104380000B68013BD1F804C00CF1FF3C43EA0C136D
:10439000D1F808C00CF1FF3C43EA0C23D1F810C05F
:1043A0000CF1FF3C43EA0C438969013943EA01639C
:1043B0001343C360D2E700BFFF0F0FFF10B40369C0
:1043C000084A1A400B684C6823438C6804F1FF3C90
:1043D00043EA4C13C96843EA4123134303610020B5
:1043E00010BC70470000C0FF4269034B134043EA12
:1043F000410343610020704701C0FFFF014B186873
:10440000704700BF1000002470B50D4E0D4D761B97
:10441000B61006D0002455F8043B01349847A64254
:10442000F9D1094E094D761B01F0AAFCB61006D051
:10443000002455F8043B01349847A642F9D170BDD9
:10444000405E0008405E0008485E0008405E0008CC
:10445000830730B548D0541E002A3FD0CAB2034665
:1044600001E0013C3AD303F8012B9D07F9D1032C5D
:104470002DD9CDB245EA05250F2C45EA054536D99B
:10448000A4F1100222F00F0C03F1200EE6444FEAD3
:10449000121C03F1100242E9045542E902551032A0
:1044A0007245F8D10CF1010214F00C0F03EB02126B
:1044B00004F00F0C13D0ACF1040323F00303043316
:1044C000134442F8045B9342FBD10CF003042CB17B
:1044D000CAB21C4403F8012B9C42FBD130BD644698
:1044E0001346002CF4D1F9E703461446BFE71A46F9
:1044F000A446E0E770B5054688B008460C46FCF7D0
:10450000FFFA224EAA6B059001214318CDE90661FE
:1045100004A8022104940393AC680190029122B391
:10452000636E13F0010FB4F90C309AB201D1980503
:1045300025D5910406D4626E43F4005322F4005250
:10454000A3816266284601AA214600F0E7F8636E5F
:10455000002814BF4FF0FF350A25DA0702D4A389DB
:104560009B0506D5284608B070BD284600F02EF8F9
:10457000D6E7A06D00F070FA284608B070BDA06DB7
:1045800000F068FAB4F90C309AB2D2E7345E000851
:10459000024B01461868FFF7ADBF00BF10000024B2
:1045A000024B13B1024800F005B87047000000004C
:1045B000F1460008002301461A46184601F04AB8A1
:1045C000014900F01FBA00BF055700082DE9F04768
:1045D0008246394800F03EFADAF83840002C66D1BD
:1045E000DAF80450354ACAF83C200323CAE9B84334
:1045F000DFF8CC90DFF8CC80334F344E04230AF53B
:104600003B72CAF8E8222146C5E90243C5E90044E5
:10461000C5E904446C660822AC6105F15C00FFF753
:1046200017FFC5E90759C5E90987EE6205F158008A
:1046300000F00CFADAF80850254BEB602146C5E98A
:104640000044C5E904446C66AC60AC61082205F125
:104650005C00FFF7FDFEC5E90759C5E90987EE6271
:1046600005F1580000F0F2F9DAF80C50194BEB6044
:104670002146C5E90044C5E904446C66AC60AC6100
:10468000082205F15C00FFF7E3FE05F15800C5E9DB
:104690000759C5E90A76C5F8248000F0D7F9012347
:1046A000CAF838300448BDE8F04700F0D5B9BDE895
:1046B000F047014800F0D0B950090024C145000876
:1046C000C9540008ED5400082D5500084D55000848
:1046D0000900010012000200014800F0BBB900BF50
:1046E0004C090024014800F0B7B900BF4C09002470
:1046F00038B5084B084D5B1B9C1007D0043B1D448C
:10470000013C55F804399847002CF9D1BDE83840F0
:1047100001F03CBB4C5E0008485E00089368002B2B
:1047200000F081802DE9F04FB1F90C300C461907EB
:10473000804683B0174698B223D523690BB310F097
:1047400002033D682BD04FF0000ADFF8B4B25646A2
:104750005E453346524628BF5B464046002E4FD04A
:10476000E169D4F824C0E047002852DDBB681B1A79
:104770008244361ABB60002BEAD1002003B0BDE8AA
:10478000F08F2146404600F0FBFE002840F03481C7
:10479000B4F90C303D6898B210F00203D3D110F098
:1047A000010942D14E463EB38205D4F808B040F12B
:1047B0008180B3455A4600F2B18010F4906F40F00A
:1047C000BE8020680192494600F0F8FBA36821688A
:1047D000019AA3EB0B030A44B246A36022600026B1
:1047E000B868A0EB0A00D144B8600028C5D0B4F97D
:1047F0000C0080B2002ED7D1D5E900960835D2E75B
:10480000D5E900A60835A3E72146404601F070F837
:1048100080B3B4F90C3043F040034FF0FF30A38174
:1048200003B0BDE8F08F002070471E46AA469946A7
:1048300018461D4656B388B34A46D4E90413206887
:10484000B24228BF3246884205D9A16803EB010B6A
:104850005A4500F3A780934264DCE169D4F824C090
:104860002A464046E047B0F1000BD2DDB9EB0B0918
:10487000CAD00120BB68A3EB0B035D44A6EB0B067B
:10488000BB60002B3FF479AF002ED4D10AF10803AE
:1048900053E902569A460833002EF9D032460A21CF
:1048A0002846FCF79DF9002800F09D800130A0EB20
:1048B0000509C1E720682369984217D86369B342A4
:1048C00014D86FF00042B24228BF3246E16992FB31
:1048D000F3F2D4F824C002FB03F340464A46E04713
:1048E000B0F1000A95DDA6EB0A0679E7B345DA4692
:1048F00028BFB2465246494600F060FBA3682268D2
:10490000A3EB0A035244A3602260002BEBD12146A3
:10491000404600F0EDFF0028E5D07AE72068B34676
:1049200032464FE72946019200F048FB019AA368FE
:104930009B1AA360236813442360934696E7236879
:104940002169A3EB010B636903EB430A0AEBDA7AF3
:104950000BF101034FEA6A0A33445345524684BFC0
:104960009A46524643052CD51146404600F076F84B
:1049700000283BD05A4621690190FCF781F9A289B1
:10498000019B22F4906242F08002A28103EB0B00B3
:104990002361AAEB0B03C4F814A0A3602060B34604
:1049A00032460FE729465A4600F008FB23685B446D
:1049B00023602146404600F09BFF00283FF456AF9D
:1049C00027E7404600F082FB03460028DED121693C
:1049D000404601F00BF8B4F90C300C2223F08003B0
:1049E000C8F8002017E7721C914626E70C22B4F99C
:1049F0000C30C8F800200EE74FF0FF30BEE600BFD5
:104A000000FCFF7F2DE9F8430746884600F538761D
:104A10004FF00009D6E90154013D11D4A389012BBF
:104A200005F1FF3508D9B4F90E300133214603D022
:104A30003846C04749EA00096B1C04F16804EDD10F
:104A40003668002EE6D14846BDE8F883704700BFBF
:104A5000704700BF704700BF704700BF2DE9F04F9F
:104A600001F10B06162E83B0044624D8102900F25B
:104A7000BA8000F01FFB102618220220B54F3A44DE
:104A8000A2F1080153688B4200F0BA805A68D968D5
:104A900022F003021A449D68E9608D60516841F07C
:104AA00001012046516003F1080500F009FB28468A
:104AB00003B0BDE8F08F36F0070600F19480B142F4
:104AC00000F2918000F0F6FAB6F5FC7FC0F09A8112
:104AD000730A00F08F80042B00F26F81B30903F199
:104AE000390003F1380CC3009A4F3B44A3F1080589
:104AF0005B689D4206D10CE0002980F22781DB68CB
:104B00009D4206D05A6822F00302911B0F29F3DD63
:104B100060463D69DFF840C265457CD06A6822F096
:104B20000302931B0F2B00F37B81002BC7E904CCFE
:104B300080F26C81B2F5007F80F01A81D308796829
:104B400001334FEA521E012202FA0EF20A4357F8CD
:104B500033E0C5F808E007EBC3010839E9607A6083
:104B600047F83350CEF80C50831001219940914200
:104B700057D8114206D120F003004900114200F13C
:104B80000400FAD007EBC0094D468646D5F80C80E4
:104B9000454508D11DE1002B80F22481D8F80C8016
:104BA000454500F01681D8F8042022F00302931B3B
:104BB0000F2BF0DD2046D8E9025408EB060146F041
:104BC0000106C8F80460EC60A56043F00104C7E981
:104BD0000411C1E902CC4C6048F8023000F070FAD0
:104BE00008F1080502E00C2323600025284603B0E5
:104BF000BDE8F08F4FF4007340204FF03F0C73E797
:104C0000D3689A4208BF02307FF440AF3D69DFF8B5
:104C100048C1654582D17A6883100121994091424B
:104C2000A7D9BD686B6823F003094E4503D8A9EBEB
:104C300006030F2B7ADCDFF824B1494BDBF80020A8
:104C40001B680132334405EB090A00F0338103F598
:104C500080530F3323F47F6828F00F084146204625
:104C600000F020FC411C024600F0F380824500F277
:104C7000EE803C4B196841441960084600F04E81B3
:104C8000DBF80010019301311BBFA2EB0A0A50446C
:104C9000CBF80020186012F0070B00F01781CBF161
:104CA00008010A44CBF5805190440831A1EB08017A
:104CB000C1F30B0A51462046009200F0F3FB421C60
:104CC000DDE9002300F04F81801A00EB0A08196823
:104CD000BA6048F001005144BD425060196000F0D4
:104CE0002981B9F10F0F40F227816868A9F10C0CF6
:104CF0002CF0070C00F0010040EA0C0068604FF057
:104D0000050E05EB0C00BCF10F0FC0E901EE00F23F
:104D1000328150681546144B1A688A4238BF1960B0
:104D2000124B1A688A4238BF196094E0AA1943F0FE
:104D3000010346F001066E602046BA60536000F041
:104D4000BFF90835284603B0BDE8F08FD9681A448A
:104D5000A1E600BF440400244C0400244C080024B5
:104D600084090024540900247C09002480090024BB
:104D7000B2F5206F4FEA522363D3142B00F2B780B1
:104D800003F15C01C9005B3307EB010E7958AEF10A
:104D9000080E8E4500F091804B6823F00303934288
:104DA00002D989688E45F7D1D1F80CE07A68C5E957
:104DB000021ECEF80850CD60D6E6142B59D9542BDC
:104DC00000F29D80330B03F16F0003F16E0CC30002
:104DD0008AE60EF1010E1EF0030F05F108057FF4BF
:104DE000D5AE51E0424445465368D8F80C1043F024
:104DF0000103536055F8083F2046D9608B6000F0EE
:104E00005FF9F3E6F00806F1080237E62A44204687
:104E1000536843F001035360083500F051F9E5E6AB
:104E2000A919204646F0010643F001046E60C7E967
:104E30000411C1E902CC4C60AB5000F041F90835D7
:104E4000D4E6930903F13901C90038339CE7BD4228
:104E50005FD0BD68686820F003084645A8EB0603EC
:104E600002D80F2B3FF762AF204600F029F900254A
:104E7000BCE603F15C0003F15B0CC30034E659F8B7
:104E800008394B4540F0968010F0030F00F1FF30D9
:104E9000F5D17B6823EA01037B60490099423FF624
:104EA000C0AE19B9BDE649000EF1040E1942FAD0A0
:104EB000704667E603F11008D0E69A104FF001083B
:104EC0007B6808FA02F21A437A6070E702EB080185
:104ED0004942C1F30B0A51462046009200F0E2FA23
:104EE000431CDDE900237FF4EFAEDA46EFE6542BF6
:104EF00025D8130B03F16F01C9006E3344E7B3F5F6
:104F0000AA7F25D8F30B03F1780003F1770CC300D7
:104F1000EAE5294B186840441860B1E6CAF30B0C67
:104F2000BCF1000F7FF4ACAEBD68C84448F001008E
:104F30006860F0E61546EEE60123536094E7B3F5AA
:104F4000AA7F23D8D30B03F17801C90077331BE77D
:104F500040F25452934223D8B30C03F17D0003F185
:104F60007C0CC300C0E5ABF1080BD844A8EB0208E9
:104F70004FF0000AABE605F108012046009300F06F
:104F800035FDBD68009B68681968C4E640F254515D
:104F90008B420BD8930C03F17D01C9007C33F3E6FF
:104FA0004FF47E737F204FF07E0C9DE54FF47E71B1
:104FB0007E23E9E67B6870E75409002488420DD916
:104FC0008B1883420AD900EB020CBAB1624613F87F
:104FD00001CD02F801CD9942F9D170470F2A0ED8C0
:104FE000034602F1FF3C4AB10CF1010C013B8C4439
:104FF00011F8012B03F8012F6145F9D1704740EA00
:1050000001039B0750D1A2F1100370B501F1200CF0
:1050100023F00F0501F1100E00F11004AC441B0940
:105020005EF8105C44F8105C5EF80C5C44F80C5CB4
:105030005EF8085C44F8085C5EF8045C44F8045CC4
:105040000EF1100EE64504F11004E9D1013312F01F
:105050000C0F01EB031102F00F0400EB031327D038
:10506000043C24F003064FEA940C1E441C1F8E4699
:105070005EF8045B44F8045FB442F9D10CF101041A
:1050800002F0030203EB840301EB840102F1FF3C15
:105090004AB10CF1010C013B8C4411F8012B03F8CF
:1050A000012F6145F9D170BD02F1FF3C03469BE73A
:1050B0002246EBE70148FFF7CDBC00BF48090024BA
:1050C0000148FFF7C9BC00BF480900242DE9F84F8B
:1050D0001746002900F0988007F10B0580460C4622
:1050E000FFF7E8FF162D5DD810252A46AF425ED89F
:1050F00054F8041C21F003069642A4F1080962DA70
:10510000BC4BD3F808C009EB0600844500F097803B
:10511000D0F804C02CF0010303445B68DB0768D4BB
:105120002CF0030C06EB0C03934247DACB0710D4A8
:1051300054F8083CA9EB030ADAF8043023F0030121
:105140008C44B444944580F211817318934280F2E8
:10515000E88039464046FFF781FC0746E0B154F845
:10516000043C23F001034B44A0F10802934200F0F9
:10517000D280321F242A00F2F580132A00F2AC807C
:1051800003462246116819605168596092689A6016
:105190002146404600F02AFC4046FFF791FF384682
:1051A000BDE8F88F25F00705002D2A469EDA0C236E
:1051B000C8F8003000273846BDE8F88F1E46D0E911
:1051C0000223D3609A60731B0F2B22D8D9F80430C6
:1051D00003F0010333434E44C9F80430736843F0CD
:1051E0000103736040462746FFF76AFF3846BDE873
:1051F000F88FC907ADD454F8083CA9EB030ADAF8D4
:10520000041021F00301A0E7BDE8F84F1146FFF7B5
:1052100025BCD9F8041001F001012943C9F8041094
:1052200009EB05014E4443F001034B60736843F002
:10523000010308317360404600F0D8FBD2E7DCF888
:10524000040020F0030B06EB0B0C05F11000844565
:105250004DDAC9073FF57DAF54F8081CA9EB010AE8
:10526000DAF8041021F003018B44B34458453FF7AA
:105270006CAF5746DAF80C1057F8080F321F242A83
:10528000C160886000F2DB80132A40F2D68021687A
:10529000CAF808106168CAF80C101B2A00F2DF80F7
:1052A00008340AF110022168116061685160A16838
:1052B00091600AEB0501ABEB050242F00102996037
:1052C0004A60DAF8043003F001031D434046CAF88F
:1052D0000450FFF7F5FE6EE72368036063684360E0
:1052E0001B2A68D804F1080200F108034AE709EB19
:1052F00005029A60ACEB050343F00103536054F8D8
:10530000043C03F001031D43404644F8045CFFF7EE
:10531000D7FE27464FE750F8043C23F003031E4412
:1053200051E75746DAF80C1057F8080F321F242AB5
:10533000C16088604CD8132A48D92168CAF808107F
:105340006168CAF80C101B2A56D808340AF11002FA
:105350001E462368136063685360A3689360D14658
:105360003C4630E72146FFF729FE11E7D0E902135A
:105370005746CB60996057F8081FDAF80C30CB60BD
:10538000321F242A99602DD8132A29D92368CAF8F4
:1053900008306368CAF80C301B2A42D808340AF176
:1053A000100322681A6062685A60A2689A606646B2
:1053B000D1463C4607E7A3688360E368C360242ABC
:1053C00026D004F1100200F11003DBE63A46BFE7F5
:1053D000214638461E46D146FFF7F0FD3C46F2E630
:1053E0003B46DEE7214638466646D146FFF7E6FDF6
:1053F0003C46E8E644040024A168CAF81010E168BD
:10540000CAF81410242A20D010340AF118029FE799
:10541000236903616169416104F1180200F1180315
:10542000B0E6A368CAF81030E368CAF81430242A3A
:1054300021D010340AF11803B3E73A4633E7214686
:105440003846FFF7BBFD164B33E72269CAF8182030
:105450006269CAF81C2018340AF1200278E7A168B2
:10546000CAF81010E168CAF81410242A0DD01034BC
:105470000AF1180217E72369CAF818306369CAF8F5
:105480001C3018340AF120038BE72269CAF818206F
:105490006269CAF81C2018340AF1200203E700BF31
:1054A0004404002438B5074D0022044608462A600B
:1054B000FBF730FF431C00D038BD2B68002BFBD01E
:1054C000236038BD8809002410B50C46B1F90E10D0
:1054D00000F018FC002803DB236D0344236510BD96
:1054E000A38923F48053A38110BD00BF2DE9F041AF
:1054F0000C46B1F90C101F46CB05054616460BD4D9
:1055000021F48051A1813B46B4F90E103246284661
:10551000BDE8F04100F01EB8B4F90E1002230022DD
:1055200000F06AFBB4F90C10EAE700BF10B50C46B6
:10553000B1F90E1000F060FBA389421C0EBF23F4EA
:10554000805343F480532065A38110BDB1F90E1040
:1055500000F0C6B838B50C46084D844611462046C2
:105560001A4600232B606446FBF7BAFE431C00D0AA
:1055700038BD2B68002BFBD0236038BD8809002480
:1055800038B5334B1B6805460C460BB19A6B12B30A
:10559000B4F90C3018079AB225D5216900292DD00D
:1055A00012F0010007D00020A06060694042A061B5
:1055B00039B1002038BD950758BF6069A060002947
:1055C000F7D1120658BF0846F4D543F04003A38133
:1055D0004FF0FF3038BD1846FEF7F8FFB4F90C3035
:1055E00018079AB2D9D4D1062AD5520714D4216902
:1055F00043F00803A3819AB20029D1D102F42070AC
:10560000B0F5007FCCD02146284600F00BFBB4F962
:105610000C3021699AB2C3E7216B51B104F1400209
:10562000914204D0284600F0E1F9B4F90C30002290
:10563000226321690022C4E9001223F02403D7E782
:10564000092243F040032A604FF0FF30A38138BDA8
:10565000100000242DE9F047DFF87CA00646DAF8B8
:10566000000098460F469146FFF7F4F91B4B1B6864
:10567000D3F8484124B365681F2D26DC5EB96B1C46
:105680000235DAF80000636044F82570FFF7E4F9AA
:105690000020BDE8F08704EB85010123C1F8889064
:1056A000D4F88821AB401A43022EC4F88821C1F8EF
:1056B0000881E4D1D4F88C211343C4F88C31DEE79F
:1056C00003F5A674C3F84841D5E7DAF80000FFF700
:1056D000C3F94FF0FF30DCE740040024305E0008DF
:1056E00038B5074D0022044608462A60FBF706FE3F
:1056F000431C00D038BD2B68002BFBD0236038BD85
:105700008809002470B500294BD006460C4610B11C
:10571000836B002B48D0636ED80734D5B4F90C30B6
:10572000002B3ED02146304600F052F8E36A054691
:1057300033B1E169304698470028B8BF4FF0FF35D4
:10574000A3891A063BD4216B41B104F1400399426D
:1057500002D0304600F04AF900232363616C21B186
:10576000304600F043F900236364FEF7B5FF636E33
:105770000022DB07A28127D5A06DFFF769F9FEF7AC
:10578000B1FF284670BDA3899905CBD4A06DFFF762
:1057900061F9B4F90C30002BC4D1656E15F0010528
:1057A00008D00025284670BDFEF710FF636ED807AD
:1057B000B4D4E8E7A06DFFF74FF9284670BD216922
:1057C000304600F013F9BEE7A06DFFF745F9D3E7C7
:1057D000B1F90C20F8B50C461107074642D46368AE
:1057E00042F40062002BA28159DDA56A002D54D03D
:1057F00000233E683B6093B212F4805253D1E169BA
:1058000001233846A847421C63D0A389A56A5B07D9
:1058100005D56368C01A236B0BB1E36BC01AE1694D
:10582000024600233846A847411C3ED13B68002B66
:105830003BD01D2B01D0162B52D1A38922692260A7
:1058400023F4006300216160A381216B3E6021B3DA
:1058500004F14003994202D0384600F0C7F8002016
:105860002063F8BD2669C6B193B2256826609A0701
:105870000CBF63690023AD1BA3600CE0D4F824C007
:10588000E1692B4632463846E047B0F1000CA5EB03
:105890000C05664416DD002DF0DC0020F8BDE36B3E
:1058A000002BA2DCF9E7206DB1E7B4F90C302269D6
:1058B000226023F40063A3810022DB046260C4D56C
:1058C0002065C2E7A38943F040034FF0FF30A38176
:1058D000F8BD3B68002B98D01D2B06D0162B04D0AA
:1058E000A38943F04003A381F8BD3E60D5E700BF24
:1058F00038B50C46054608B1836BA3B1B4F90C006A
:10590000B8B1636EDB0701D4810515D52846214661
:10591000FFF75EFF636EDA07054602D4A3899B0595
:105920000ED5284638BDFEF751FEB4F90C0000280C
:10593000E7D10546284638BDA06DFFF78BF8E5E7AF
:10594000A06DFFF789F8284638BD00BFF8B5244F91
:105950000C460646FFF7AEFBBA685568C4F57E6391
:105960000F3325F003052B4423F47F6323F00F034B
:10597000A3F58054B4F5805F07DB00213046FFF7C4
:1059800091FDBB682B44984204D03046FFF798FB4A
:105990000020F8BD61423046FFF784FD01300DD094
:1059A000104ABB682D1B45F001055D601368304649
:1059B0001B1B1360FFF784FB0120F8BD002130465C
:1059C000FFF770FDBA68831A0F2BDEDD43F0010389
:1059D0005360054B03491B68C01A0860D5E700BF38
:1059E00044040024540900244C080024002961D0F8
:1059F000F8B50C460646FFF75DFB54F8042C7B4FC8
:105A0000A4F1080522F0010105EB010CB868DCF8EF
:105A10000430604523F0030300F08B80D207CCF8FC
:105A2000043032D454F8082CAD1A1144AA6807F196
:105A3000080082426AD00CEB0304D4F804E0EC685E
:105A4000D4601EF0010FA26000F0978041F00103C6
:105A50006B60CCF80010B1F5007F35D27A68CB08C6
:105A600048090121013381401143796007EBC302EA
:105A700057F83310083AC5E9021247F83350CD60A1
:105A80003046BDE8F840FFF71BBB0CEB0302526841
:105A9000D00710D4194407F10800DCF8083083421D
:105AA00073D0DCF80C20DA60936041F001036B6086
:105AB0006950D0E7704741F00103B1F5007F44F829
:105AC000043CCCF80010C9D3B1F5206F4FEA512344
:105AD00048D28B0903F1390003F13802C300F818EA
:105AE000FB580838984259D05A6822F003028A427B
:105AF00002D99B689842F7D1D868C5E90230856021
